{
    "contractName": "DammHook",
    "abi": [
        {
            "inputs": [
                {
                    "internalType": "contract IPoolManager",
                    "name": "_poolManager",
                    "type": "address"
                }
            ],
            "stateMutability": "nonpayable",
            "type": "constructor"
        },
        {
            "inputs": [],
            "name": "HookNotImplemented",
            "type": "error"
        },
        {
            "inputs": [],
            "name": "InvalidPool",
            "type": "error"
        },
        {
            "inputs": [],
            "name": "LockFailure",
            "type": "error"
        },
        {
            "inputs": [],
            "name": "MustUseDynamicFee",
            "type": "error"
        },
        {
            "inputs": [],
            "name": "NotPoolManager",
            "type": "error"
        },
        {
            "inputs": [],
            "name": "NotSelf",
            "type": "error"
        },
        {
            "inputs": [],
            "name": "BASE_FEE",
            "outputs": [
                {
                    "internalType": "uint24",
                    "name": "",
                    "type": "uint24"
                }
            ],
            "stateMutability": "view",
            "type": "function"
        },
        {
            "inputs": [],
            "name": "POINTS_FOR_REFERRAL",
            "outputs": [
                {
                    "internalType": "uint256",
                    "name": "",
                    "type": "uint256"
                }
            ],
            "stateMutability": "view",
            "type": "function"
        },
        {
            "inputs": [
                {
                    "internalType": "address",
                    "name": "",
                    "type": "address"
                },
                {
                    "components": [
                        {
                            "internalType": "Currency",
                            "name": "currency0",
                            "type": "address"
                        },
                        {
                            "internalType": "Currency",
                            "name": "currency1",
                            "type": "address"
                        },
                        {
                            "internalType": "uint24",
                            "name": "fee",
                            "type": "uint24"
                        },
                        {
                            "internalType": "int24",
                            "name": "tickSpacing",
                            "type": "int24"
                        },
                        {
                            "internalType": "contract IHooks",
                            "name": "hooks",
                            "type": "address"
                        }
                    ],
                    "internalType": "struct PoolKey",
                    "name": "",
                    "type": "tuple"
                },
                {
                    "components": [
                        {
                            "internalType": "int24",
                            "name": "tickLower",
                            "type": "int24"
                        },
                        {
                            "internalType": "int24",
                            "name": "tickUpper",
                            "type": "int24"
                        },
                        {
                            "internalType": "int256",
                            "name": "liquidityDelta",
                            "type": "int256"
                        },
                        {
                            "internalType": "bytes32",
                            "name": "salt",
                            "type": "bytes32"
                        }
                    ],
                    "internalType": "struct IPoolManager.ModifyLiquidityParams",
                    "name": "",
                    "type": "tuple"
                },
                {
                    "internalType": "BalanceDelta",
                    "name": "",
                    "type": "int256"
                },
                {
                    "internalType": "BalanceDelta",
                    "name": "",
                    "type": "int256"
                },
                {
                    "internalType": "bytes",
                    "name": "",
                    "type": "bytes"
                }
            ],
            "name": "afterAddLiquidity",
            "outputs": [
                {
                    "internalType": "bytes4",
                    "name": "",
                    "type": "bytes4"
                },
                {
                    "internalType": "BalanceDelta",
                    "name": "",
                    "type": "int256"
                }
            ],
            "stateMutability": "nonpayable",
            "type": "function"
        },
        {
            "inputs": [
                {
                    "internalType": "address",
                    "name": "",
                    "type": "address"
                },
                {
                    "components": [
                        {
                            "internalType": "Currency",
                            "name": "currency0",
                            "type": "address"
                        },
                        {
                            "internalType": "Currency",
                            "name": "currency1",
                            "type": "address"
                        },
                        {
                            "internalType": "uint24",
                            "name": "fee",
                            "type": "uint24"
                        },
                        {
                            "internalType": "int24",
                            "name": "tickSpacing",
                            "type": "int24"
                        },
                        {
                            "internalType": "contract IHooks",
                            "name": "hooks",
                            "type": "address"
                        }
                    ],
                    "internalType": "struct PoolKey",
                    "name": "",
                    "type": "tuple"
                },
                {
                    "internalType": "uint256",
                    "name": "",
                    "type": "uint256"
                },
                {
                    "internalType": "uint256",
                    "name": "",
                    "type": "uint256"
                },
                {
                    "internalType": "bytes",
                    "name": "",
                    "type": "bytes"
                }
            ],
            "name": "afterDonate",
            "outputs": [
                {
                    "internalType": "bytes4",
                    "name": "",
                    "type": "bytes4"
                }
            ],
            "stateMutability": "nonpayable",
            "type": "function"
        },
        {
            "inputs": [
                {
                    "internalType": "address",
                    "name": "",
                    "type": "address"
                },
                {
                    "components": [
                        {
                            "internalType": "Currency",
                            "name": "currency0",
                            "type": "address"
                        },
                        {
                            "internalType": "Currency",
                            "name": "currency1",
                            "type": "address"
                        },
                        {
                            "internalType": "uint24",
                            "name": "fee",
                            "type": "uint24"
                        },
                        {
                            "internalType": "int24",
                            "name": "tickSpacing",
                            "type": "int24"
                        },
                        {
                            "internalType": "contract IHooks",
                            "name": "hooks",
                            "type": "address"
                        }
                    ],
                    "internalType": "struct PoolKey",
                    "name": "",
                    "type": "tuple"
                },
                {
                    "internalType": "uint160",
                    "name": "",
                    "type": "uint160"
                },
                {
                    "internalType": "int24",
                    "name": "",
                    "type": "int24"
                },
                {
                    "internalType": "bytes",
                    "name": "",
                    "type": "bytes"
                }
            ],
            "name": "afterInitialize",
            "outputs": [
                {
                    "internalType": "bytes4",
                    "name": "",
                    "type": "bytes4"
                }
            ],
            "stateMutability": "nonpayable",
            "type": "function"
        },
        {
            "inputs": [
                {
                    "internalType": "address",
                    "name": "",
                    "type": "address"
                },
                {
                    "components": [
                        {
                            "internalType": "Currency",
                            "name": "currency0",
                            "type": "address"
                        },
                        {
                            "internalType": "Currency",
                            "name": "currency1",
                            "type": "address"
                        },
                        {
                            "internalType": "uint24",
                            "name": "fee",
                            "type": "uint24"
                        },
                        {
                            "internalType": "int24",
                            "name": "tickSpacing",
                            "type": "int24"
                        },
                        {
                            "internalType": "contract IHooks",
                            "name": "hooks",
                            "type": "address"
                        }
                    ],
                    "internalType": "struct PoolKey",
                    "name": "",
                    "type": "tuple"
                },
                {
                    "components": [
                        {
                            "internalType": "int24",
                            "name": "tickLower",
                            "type": "int24"
                        },
                        {
                            "internalType": "int24",
                            "name": "tickUpper",
                            "type": "int24"
                        },
                        {
                            "internalType": "int256",
                            "name": "liquidityDelta",
                            "type": "int256"
                        },
                        {
                            "internalType": "bytes32",
                            "name": "salt",
                            "type": "bytes32"
                        }
                    ],
                    "internalType": "struct IPoolManager.ModifyLiquidityParams",
                    "name": "",
                    "type": "tuple"
                },
                {
                    "internalType": "BalanceDelta",
                    "name": "",
                    "type": "int256"
                },
                {
                    "internalType": "BalanceDelta",
                    "name": "",
                    "type": "int256"
                },
                {
                    "internalType": "bytes",
                    "name": "",
                    "type": "bytes"
                }
            ],
            "name": "afterRemoveLiquidity",
            "outputs": [
                {
                    "internalType": "bytes4",
                    "name": "",
                    "type": "bytes4"
                },
                {
                    "internalType": "BalanceDelta",
                    "name": "",
                    "type": "int256"
                }
            ],
            "stateMutability": "nonpayable",
            "type": "function"
        },
        {
            "inputs": [
                {
                    "internalType": "address",
                    "name": "",
                    "type": "address"
                },
                {
                    "components": [
                        {
                            "internalType": "Currency",
                            "name": "currency0",
                            "type": "address"
                        },
                        {
                            "internalType": "Currency",
                            "name": "currency1",
                            "type": "address"
                        },
                        {
                            "internalType": "uint24",
                            "name": "fee",
                            "type": "uint24"
                        },
                        {
                            "internalType": "int24",
                            "name": "tickSpacing",
                            "type": "int24"
                        },
                        {
                            "internalType": "contract IHooks",
                            "name": "hooks",
                            "type": "address"
                        }
                    ],
                    "internalType": "struct PoolKey",
                    "name": "",
                    "type": "tuple"
                },
                {
                    "components": [
                        {
                            "internalType": "bool",
                            "name": "zeroForOne",
                            "type": "bool"
                        },
                        {
                            "internalType": "int256",
                            "name": "amountSpecified",
                            "type": "int256"
                        },
                        {
                            "internalType": "uint160",
                            "name": "sqrtPriceLimitX96",
                            "type": "uint160"
                        }
                    ],
                    "internalType": "struct IPoolManager.SwapParams",
                    "name": "",
                    "type": "tuple"
                },
                {
                    "internalType": "BalanceDelta",
                    "name": "",
                    "type": "int256"
                },
                {
                    "internalType": "bytes",
                    "name": "",
                    "type": "bytes"
                }
            ],
            "name": "afterSwap",
            "outputs": [
                {
                    "internalType": "bytes4",
                    "name": "",
                    "type": "bytes4"
                },
                {
                    "internalType": "int128",
                    "name": "",
                    "type": "int128"
                }
            ],
            "stateMutability": "nonpayable",
            "type": "function"
        },
        {
            "inputs": [
                {
                    "internalType": "address",
                    "name": "",
                    "type": "address"
                },
                {
                    "components": [
                        {
                            "internalType": "Currency",
                            "name": "currency0",
                            "type": "address"
                        },
                        {
                            "internalType": "Currency",
                            "name": "currency1",
                            "type": "address"
                        },
                        {
                            "internalType": "uint24",
                            "name": "fee",
                            "type": "uint24"
                        },
                        {
                            "internalType": "int24",
                            "name": "tickSpacing",
                            "type": "int24"
                        },
                        {
                            "internalType": "contract IHooks",
                            "name": "hooks",
                            "type": "address"
                        }
                    ],
                    "internalType": "struct PoolKey",
                    "name": "",
                    "type": "tuple"
                },
                {
                    "components": [
                        {
                            "internalType": "int24",
                            "name": "tickLower",
                            "type": "int24"
                        },
                        {
                            "internalType": "int24",
                            "name": "tickUpper",
                            "type": "int24"
                        },
                        {
                            "internalType": "int256",
                            "name": "liquidityDelta",
                            "type": "int256"
                        },
                        {
                            "internalType": "bytes32",
                            "name": "salt",
                            "type": "bytes32"
                        }
                    ],
                    "internalType": "struct IPoolManager.ModifyLiquidityParams",
                    "name": "",
                    "type": "tuple"
                },
                {
                    "internalType": "bytes",
                    "name": "",
                    "type": "bytes"
                }
            ],
            "name": "beforeAddLiquidity",
            "outputs": [
                {
                    "internalType": "bytes4",
                    "name": "",
                    "type": "bytes4"
                }
            ],
            "stateMutability": "nonpayable",
            "type": "function"
        },
        {
            "inputs": [
                {
                    "internalType": "address",
                    "name": "",
                    "type": "address"
                },
                {
                    "components": [
                        {
                            "internalType": "Currency",
                            "name": "currency0",
                            "type": "address"
                        },
                        {
                            "internalType": "Currency",
                            "name": "currency1",
                            "type": "address"
                        },
                        {
                            "internalType": "uint24",
                            "name": "fee",
                            "type": "uint24"
                        },
                        {
                            "internalType": "int24",
                            "name": "tickSpacing",
                            "type": "int24"
                        },
                        {
                            "internalType": "contract IHooks",
                            "name": "hooks",
                            "type": "address"
                        }
                    ],
                    "internalType": "struct PoolKey",
                    "name": "",
                    "type": "tuple"
                },
                {
                    "internalType": "uint256",
                    "name": "",
                    "type": "uint256"
                },
                {
                    "internalType": "uint256",
                    "name": "",
                    "type": "uint256"
                },
                {
                    "internalType": "bytes",
                    "name": "",
                    "type": "bytes"
                }
            ],
            "name": "beforeDonate",
            "outputs": [
                {
                    "internalType": "bytes4",
                    "name": "",
                    "type": "bytes4"
                }
            ],
            "stateMutability": "nonpayable",
            "type": "function"
        },
        {
            "inputs": [
                {
                    "internalType": "address",
                    "name": "",
                    "type": "address"
                },
                {
                    "components": [
                        {
                            "internalType": "Currency",
                            "name": "currency0",
                            "type": "address"
                        },
                        {
                            "internalType": "Currency",
                            "name": "currency1",
                            "type": "address"
                        },
                        {
                            "internalType": "uint24",
                            "name": "fee",
                            "type": "uint24"
                        },
                        {
                            "internalType": "int24",
                            "name": "tickSpacing",
                            "type": "int24"
                        },
                        {
                            "internalType": "contract IHooks",
                            "name": "hooks",
                            "type": "address"
                        }
                    ],
                    "internalType": "struct PoolKey",
                    "name": "key",
                    "type": "tuple"
                },
                {
                    "internalType": "uint160",
                    "name": "",
                    "type": "uint160"
                },
                {
                    "internalType": "bytes",
                    "name": "",
                    "type": "bytes"
                }
            ],
            "name": "beforeInitialize",
            "outputs": [
                {
                    "internalType": "bytes4",
                    "name": "",
                    "type": "bytes4"
                }
            ],
            "stateMutability": "pure",
            "type": "function"
        },
        {
            "inputs": [
                {
                    "internalType": "address",
                    "name": "",
                    "type": "address"
                },
                {
                    "components": [
                        {
                            "internalType": "Currency",
                            "name": "currency0",
                            "type": "address"
                        },
                        {
                            "internalType": "Currency",
                            "name": "currency1",
                            "type": "address"
                        },
                        {
                            "internalType": "uint24",
                            "name": "fee",
                            "type": "uint24"
                        },
                        {
                            "internalType": "int24",
                            "name": "tickSpacing",
                            "type": "int24"
                        },
                        {
                            "internalType": "contract IHooks",
                            "name": "hooks",
                            "type": "address"
                        }
                    ],
                    "internalType": "struct PoolKey",
                    "name": "",
                    "type": "tuple"
                },
                {
                    "components": [
                        {
                            "internalType": "int24",
                            "name": "tickLower",
                            "type": "int24"
                        },
                        {
                            "internalType": "int24",
                            "name": "tickUpper",
                            "type": "int24"
                        },
                        {
                            "internalType": "int256",
                            "name": "liquidityDelta",
                            "type": "int256"
                        },
                        {
                            "internalType": "bytes32",
                            "name": "salt",
                            "type": "bytes32"
                        }
                    ],
                    "internalType": "struct IPoolManager.ModifyLiquidityParams",
                    "name": "",
                    "type": "tuple"
                },
                {
                    "internalType": "bytes",
                    "name": "",
                    "type": "bytes"
                }
            ],
            "name": "beforeRemoveLiquidity",
            "outputs": [
                {
                    "internalType": "bytes4",
                    "name": "",
                    "type": "bytes4"
                }
            ],
            "stateMutability": "nonpayable",
            "type": "function"
        },
        {
            "inputs": [
                {
                    "internalType": "address",
                    "name": "sender",
                    "type": "address"
                },
                {
                    "components": [
                        {
                            "internalType": "Currency",
                            "name": "currency0",
                            "type": "address"
                        },
                        {
                            "internalType": "Currency",
                            "name": "currency1",
                            "type": "address"
                        },
                        {
                            "internalType": "uint24",
                            "name": "fee",
                            "type": "uint24"
                        },
                        {
                            "internalType": "int24",
                            "name": "tickSpacing",
                            "type": "int24"
                        },
                        {
                            "internalType": "contract IHooks",
                            "name": "hooks",
                            "type": "address"
                        }
                    ],
                    "internalType": "struct PoolKey",
                    "name": "key",
                    "type": "tuple"
                },
                {
                    "components": [
                        {
                            "internalType": "bool",
                            "name": "zeroForOne",
                            "type": "bool"
                        },
                        {
                            "internalType": "int256",
                            "name": "amountSpecified",
                            "type": "int256"
                        },
                        {
                            "internalType": "uint160",
                            "name": "sqrtPriceLimitX96",
                            "type": "uint160"
                        }
                    ],
                    "internalType": "struct IPoolManager.SwapParams",
                    "name": "params",
                    "type": "tuple"
                },
                {
                    "internalType": "bytes",
                    "name": "hookData",
                    "type": "bytes"
                }
            ],
            "name": "beforeSwap",
            "outputs": [
                {
                    "internalType": "bytes4",
                    "name": "",
                    "type": "bytes4"
                },
                {
                    "internalType": "BeforeSwapDelta",
                    "name": "",
                    "type": "int256"
                },
                {
                    "internalType": "uint24",
                    "name": "",
                    "type": "uint24"
                }
            ],
            "stateMutability": "nonpayable",
            "type": "function"
        },
        {
            "inputs": [],
            "name": "getHookPermissions",
            "outputs": [
                {
                    "components": [
                        {
                            "internalType": "bool",
                            "name": "beforeInitialize",
                            "type": "bool"
                        },
                        {
                            "internalType": "bool",
                            "name": "afterInitialize",
                            "type": "bool"
                        },
                        {
                            "internalType": "bool",
                            "name": "beforeAddLiquidity",
                            "type": "bool"
                        },
                        {
                            "internalType": "bool",
                            "name": "afterAddLiquidity",
                            "type": "bool"
                        },
                        {
                            "internalType": "bool",
                            "name": "beforeRemoveLiquidity",
                            "type": "bool"
                        },
                        {
                            "internalType": "bool",
                            "name": "afterRemoveLiquidity",
                            "type": "bool"
                        },
                        {
                            "internalType": "bool",
                            "name": "beforeSwap",
                            "type": "bool"
                        },
                        {
                            "internalType": "bool",
                            "name": "afterSwap",
                            "type": "bool"
                        },
                        {
                            "internalType": "bool",
                            "name": "beforeDonate",
                            "type": "bool"
                        },
                        {
                            "internalType": "bool",
                            "name": "afterDonate",
                            "type": "bool"
                        },
                        {
                            "internalType": "bool",
                            "name": "beforeSwapReturnDelta",
                            "type": "bool"
                        },
                        {
                            "internalType": "bool",
                            "name": "afterSwapReturnDelta",
                            "type": "bool"
                        },
                        {
                            "internalType": "bool",
                            "name": "afterAddLiquidityReturnDelta",
                            "type": "bool"
                        },
                        {
                            "internalType": "bool",
                            "name": "afterRemoveLiquidityReturnDelta",
                            "type": "bool"
                        }
                    ],
                    "internalType": "struct Hooks.Permissions",
                    "name": "",
                    "type": "tuple"
                }
            ],
            "stateMutability": "pure",
            "type": "function"
        },
        {
            "inputs": [
                {
                    "internalType": "address",
                    "name": "",
                    "type": "address"
                }
            ],
            "name": "informedTraders",
            "outputs": [
                {
                    "internalType": "uint256",
                    "name": "",
                    "type": "uint256"
                }
            ],
            "stateMutability": "view",
            "type": "function"
        },
        {
            "inputs": [],
            "name": "movingAverageGasPrice",
            "outputs": [
                {
                    "internalType": "uint128",
                    "name": "",
                    "type": "uint128"
                }
            ],
            "stateMutability": "view",
            "type": "function"
        },
        {
            "inputs": [],
            "name": "movingAverageGasPriceCount",
            "outputs": [
                {
                    "internalType": "uint104",
                    "name": "",
                    "type": "uint104"
                }
            ],
            "stateMutability": "view",
            "type": "function"
        },
        {
            "inputs": [],
            "name": "poolManager",
            "outputs": [
                {
                    "internalType": "contract IPoolManager",
                    "name": "",
                    "type": "address"
                }
            ],
            "stateMutability": "view",
            "type": "function"
        },
        {
            "inputs": [
                {
                    "internalType": "address",
                    "name": "",
                    "type": "address"
                }
            ],
            "name": "referredBy",
            "outputs": [
                {
                    "internalType": "address",
                    "name": "",
                    "type": "address"
                }
            ],
            "stateMutability": "view",
            "type": "function"
        },
        {
            "inputs": [
                {
                    "internalType": "bytes",
                    "name": "data",
                    "type": "bytes"
                }
            ],
            "name": "unlockCallback",
            "outputs": [
                {
                    "internalType": "bytes",
                    "name": "",
                    "type": "bytes"
                }
            ],
            "stateMutability": "nonpayable",
            "type": "function"
        }
    ],
    "bytecode": "60a06040523461033c57604051601f610ea338819003918201601f19168301916001600160401b038311848410176103405780849260209460405283398101031261033c57516001600160a01b038116810361033c576080525f6101a0610064610354565b8281528260208201528260408201528260608201528260808201528260a08201528260c08201528260e0820152826101008201528261012082015282610140820152826101608201528261018082015201525f6101a06100c2610354565b600181528260208201528260408201528260608201528260808201528260a0820152600160c0820152600160e0820152826101008201528261012082015282610140820152826101608201528261018082015201526120003016151560011480159061032f575b8015610322575b8015610315575b8015610308575b80156102fb575b80156102eb575b80156102db575b80156102cf575b80156102c3575b80156102b7575b80156102ab575b801561029f575b8015610293575b610280575f54608081901c6001600160681b03166001600160801b038083168202908116908103610258576001600160801b033a81169190910191908211610258576001016001600160681b038111610258576001600160681b0316801561026c576001600160801b0391821604166001600160681b036001600160801b03198316821760801c8116908114610258576001600160e81b03199092161760019190910160801b600160801b600160e81b0316175f55604051610b2e9081610375823960805181818161010701528181610560015261061a0152f35b634e487b7160e01b5f52601160045260245ffd5b634e487b7160e01b5f52601260045260245ffd5b630732d7b560e51b5f523060045260245ffd5b5060013016151561017d565b50600230161515610176565b5060043016151561016f565b50600830161515610168565b50601030161515610161565b5060203016151561015a565b5060403016151560011415610153565b506080301615156001141561014c565b5061010030161515610145565b506102003016151561013e565b5061040030161515610137565b5061080030161515610130565b5061100030161515610129565b5f80fd5b634e487b7160e01b5f52604160045260245ffd5b604051906101c082016001600160401b038111838210176103405760405256fe60806040526004361015610011575f80fd5b5f5f3560e01c90816321d0ee701461086f578163259982e51461086f5781633440d820146107e35781633d18651e146107c757816345865829146107a4578163575e24b4146105c25781636c2bbe7e1461050257816391dd73461461052c5781639a161daa146105075781639f063efc14610502578163a90f8e9a146104c2578163a910f80f14610458578163b47b2fb114610300578163b6a8b0fa146100ed578163c02a455e146102c8578163c4e833ce14610161578163cd2c70e814610139578163dc4c90d3146100f2575063e1b4af69146100ed575f80fd5b6109d3565b346101365780600319360112610136576040517f00000000000000000000000000000000000000000000000000000000000000006001600160a01b03168152602090f35b80fd5b346101365780600319360112610136576001600160681b036020915460801c16604051908152f35b346101365780600319360112610136576020816101c0926101a060405161018781610a26565b82815282858201528260408201528260608201528260808201528260a08201528260c08201528260e082015282610100820152826101208201528261014082015282610160820152826101808201520152806040516101e581610a26565b6001815283810182815260408201838152606083018481526080840185815260a0850186815260c08601906001825260e0870192600184526101008801948986526101208901968a88526101408a01988b8a526101a06101608c019b8d8d5261018081019d8e52019c8d526040519d8e916001835251151591015251151560408d015251151560608c015251151560808b015251151560a08a015251151560c089015251151560e08801525115156101008701525115156101208601525115156101408501525115156101608401525115156101808301525115156101a0820152f35b34610136576020366003190112610136576020906040906001600160a01b036102ef610874565b168152600283522054604051908152f35b34610136576101603660031901126101365761031a610874565b5060a03660231901126101365760603660c3190112610136576101443567ffffffffffffffff81116104545761035490369060040161088a565b50508054906001600160681b038260801c16806001600160801b038416026001600160801b03811690810361042c576001600160801b033a1601906001600160801b03821161042c576001016001600160681b03811161042c576001600160681b031690811561044057906001600160801b038092160416916001600160681b03836001600160801b031983161760801c16926001600160681b03841461042c5760409360016001600160681b0360801b910160801b169162ffffff60e81b161717815581519063b47b2fb160e01b82526020820152f35b634e487b7160e01b83526011600452602483fd5b634e487b7160e01b83526012600452602483fd5b5080fd5b346101365761012036600319011261013657610472610874565b5060a03660231901126101365761048761092a565b506104906109c3565b506101043567ffffffffffffffff811161045457906104b46004923690840161088a565b5050630a85dc2960e01b8152fd5b34610136576020366003190112610136576020906001600160a01b036104e6610874565b16815260018252604060018060a01b0391205416604051908152f35b610940565b346101365780600319360112610136576001600160801b036020915416604051908152f35b346101365760203660031901126101365760043567ffffffffffffffff81116104545761055d90369060040161088a565b917f00000000000000000000000000000000000000000000000000000000000000006001600160a01b031633036105b3576105af61059b8484610a79565b60405191829160208352602083019061099f565b0390f35b63570c108560e11b8152600490fd5b346107a0576101403660031901126107a0576105dc610874565b5060a03660231901126107a05760603660c31901126107a0576101243567ffffffffffffffff81116107a05761061690369060040161088a565b50507f00000000000000000000000000000000000000000000000000000000000000006001600160a01b031690813b156107a057604051635275965160e01b8152916024356001600160a01b038116908190036107a05760048401526044356001600160a01b038116908190036107a057602484015260643562ffffff81168091036107a05760448401526084358060020b8091036107a057606484015260a4356001600160a01b03811691908290036107a05760c4845f819381956084840152610bb860a48401525af1801561079557610782575b8060609150604090808083516107028582610a57565b600d81526c0213637b1b5b73ab6b132b91d1609d1b602082015284516107588161074460208201946309710a9d60e41b8652896024840152606483019061099f565b43604483015203601f198101835282610a57565b51906a636f6e736f6c652e6c6f675afa5081516315d7892d60e21b81526020810182905291820152f35b505f61078d91610a57565b60605f6106ec565b6040513d5f823e3d90fd5b5f80fd5b346107a0575f3660031901126107a0576020604051681b1ae4d6e2ef5000008152f35b346107a0575f3660031901126107a0576020604051610bb88152f35b346107a0576101003660031901126107a0576107fd610874565b5060a03660231901126107a05761081261092a565b5060e43567ffffffffffffffff81116107a05761083390369060040161088a565b505060643562ffffff81168091036107a0576280000003610860576040516301a206c160e51b8152602090f35b6315b3d69f60e31b5f5260045ffd5b6108b8565b600435906001600160a01b03821682036107a057565b9181601f840112156107a05782359167ffffffffffffffff83116107a057602083818601950101116107a057565b346107a0576101603660031901126107a0576004356001600160a01b03811681036107a0575060a03660231901126107a05760803660c31901126107a0576101443567ffffffffffffffff81116107a05761091790369060040161088a565b5050630a85dc2960e01b5f908152600490fd5b60c435906001600160a01b03821682036107a057565b346107a0576101a03660031901126107a0576004356001600160a01b03811681036107a0575060a03660231901126107a05760803660c31901126107a0576101843567ffffffffffffffff81116107a05761091790369060040161088a565b805180835260209291819084018484015e5f828201840152601f01601f1916010190565b60e435908160020b82036107a057565b346107a0576101203660031901126107a0576004356001600160a01b03811681036107a0575060a03660231901126107a0576101043567ffffffffffffffff81116107a05761091790369060040161088a565b6101c0810190811067ffffffffffffffff821117610a4357604052565b634e487b7160e01b5f52604160045260245ffd5b90601f8019910116810190811067ffffffffffffffff821117610a4357604052565b5f9182918160405192839283378101838152039082305af1903d15610af0573d9167ffffffffffffffff8311610a435760405192610ac1601f8201601f191660200185610a57565b83523d5f602085013e5b610aee5750805115610adf57602081519101fd5b6314815f4760e31b5f5260045ffd5b565b606091610acb56fea2646970667358221220cdb7555c1d8e59321e7c372beb75151c5ec062b3f2b0271530300038dabe572964736f6c634300081b0033",
    "sourcePath": "/Users/r.lewandrowski/Documents/development/amm/damm/src/DammHook.sol",
    "compiler": {
        "name": "solc",
        "version": "0.8.27+commit.40a35a09"
    },
    "functionHashes": {
        "BASE_FEE()": "3d18651e",
        "POINTS_FOR_REFERRAL()": "45865829",
        "afterAddLiquidity(address,(address,address,uint24,int24,address),(int24,int24,int256,bytes32),int256,int256,bytes)": "9f063efc",
        "afterDonate(address,(address,address,uint24,int24,address),uint256,uint256,bytes)": "e1b4af69",
        "afterInitialize(address,(address,address,uint24,int24,address),uint160,int24,bytes)": "a910f80f",
        "afterRemoveLiquidity(address,(address,address,uint24,int24,address),(int24,int24,int256,bytes32),int256,int256,bytes)": "6c2bbe7e",
        "afterSwap(address,(address,address,uint24,int24,address),(bool,int256,uint160),int256,bytes)": "b47b2fb1",
        "beforeAddLiquidity(address,(address,address,uint24,int24,address),(int24,int24,int256,bytes32),bytes)": "259982e5",
        "beforeDonate(address,(address,address,uint24,int24,address),uint256,uint256,bytes)": "b6a8b0fa",
        "beforeInitialize(address,(address,address,uint24,int24,address),uint160,bytes)": "3440d820",
        "beforeRemoveLiquidity(address,(address,address,uint24,int24,address),(int24,int24,int256,bytes32),bytes)": "21d0ee70",
        "beforeSwap(address,(address,address,uint24,int24,address),(bool,int256,uint160),bytes)": "575e24b4",
        "getHookPermissions()": "c4e833ce",
        "informedTraders(address)": "c02a455e",
        "movingAverageGasPrice()": "9a161daa",
        "movingAverageGasPriceCount()": "cd2c70e8",
        "poolManager()": "dc4c90d3",
        "referredBy(address)": "a90f8e9a",
        "unlockCallback(bytes)": "91dd7346"
    },
    "gasEstimates": {
        "creation": {
            "codeDepositCost": "572400",
            "executionCost": "infinite",
            "totalCost": "infinite"
        },
        "external": {
            "BASE_FEE()": "216",
            "POINTS_FOR_REFERRAL()": "238",
            "afterAddLiquidity(address,(address,address,uint24,int24,address),(int24,int24,int256,bytes32),int256,int256,bytes)": "646",
            "afterDonate(address,(address,address,uint24,int24,address),uint256,uint256,bytes)": "813",
            "afterInitialize(address,(address,address,uint24,int24,address),uint160,int24,bytes)": "810",
            "afterRemoveLiquidity(address,(address,address,uint24,int24,address),(int24,int24,int256,bytes32),int256,int256,bytes)": "580",
            "afterSwap(address,(address,address,uint24,int24,address),(bool,int256,uint160),int256,bytes)": "25389",
            "beforeAddLiquidity(address,(address,address,uint24,int24,address),(int24,int24,int256,bytes32),bytes)": "470",
            "beforeDonate(address,(address,address,uint24,int24,address),uint256,uint256,bytes)": "704",
            "beforeInitialize(address,(address,address,uint24,int24,address),uint160,bytes)": "615",
            "beforeRemoveLiquidity(address,(address,address,uint24,int24,address),(int24,int24,int256,bytes32),bytes)": "448",
            "beforeSwap(address,(address,address,uint24,int24,address),(bool,int256,uint160),bytes)": "infinite",
            "getHookPermissions()": "infinite",
            "informedTraders(address)": "2716",
            "movingAverageGasPrice()": "2448",
            "movingAverageGasPriceCount()": "2630",
            "poolManager()": "infinite",
            "referredBy(address)": "2646",
            "unlockCallback(bytes)": "infinite"
        },
        "internal": {
            "getFee()": "infinite",
            "updateMovingAverage()": "infinite"
        }
    }
}